{
  "contractName": "Pool",
  "abi": [
    {
      "inputs": [
        {
          "internalType": "contract Hao",
          "name": "_hao",
          "type": "address"
        }
      ],
      "stateMutability": "nonpayable",
      "type": "constructor"
    },
    {
      "inputs": [],
      "name": "hao",
      "outputs": [
        {
          "internalType": "contract Hao",
          "name": "",
          "type": "address"
        }
      ],
      "stateMutability": "view",
      "type": "function",
      "constant": true
    },
    {
      "inputs": [],
      "name": "lastUpdateTime",
      "outputs": [
        {
          "internalType": "uint256",
          "name": "",
          "type": "uint256"
        }
      ],
      "stateMutability": "view",
      "type": "function",
      "constant": true
    },
    {
      "inputs": [],
      "name": "name",
      "outputs": [
        {
          "internalType": "string",
          "name": "",
          "type": "string"
        }
      ],
      "stateMutability": "view",
      "type": "function",
      "constant": true
    },
    {
      "inputs": [],
      "name": "owner",
      "outputs": [
        {
          "internalType": "address",
          "name": "",
          "type": "address"
        }
      ],
      "stateMutability": "view",
      "type": "function",
      "constant": true
    },
    {
      "inputs": [],
      "name": "rewardPerTokenStored",
      "outputs": [
        {
          "internalType": "uint256",
          "name": "",
          "type": "uint256"
        }
      ],
      "stateMutability": "view",
      "type": "function",
      "constant": true
    },
    {
      "inputs": [],
      "name": "rewardRate",
      "outputs": [
        {
          "internalType": "uint256",
          "name": "",
          "type": "uint256"
        }
      ],
      "stateMutability": "view",
      "type": "function",
      "constant": true
    },
    {
      "inputs": [
        {
          "internalType": "address",
          "name": "",
          "type": "address"
        }
      ],
      "name": "rewards",
      "outputs": [
        {
          "internalType": "uint256",
          "name": "",
          "type": "uint256"
        }
      ],
      "stateMutability": "view",
      "type": "function",
      "constant": true
    },
    {
      "inputs": [
        {
          "internalType": "address",
          "name": "",
          "type": "address"
        }
      ],
      "name": "stakeBalance",
      "outputs": [
        {
          "internalType": "uint256",
          "name": "",
          "type": "uint256"
        }
      ],
      "stateMutability": "view",
      "type": "function",
      "constant": true
    },
    {
      "inputs": [],
      "name": "totalStaked",
      "outputs": [
        {
          "internalType": "uint256",
          "name": "",
          "type": "uint256"
        }
      ],
      "stateMutability": "view",
      "type": "function",
      "constant": true
    },
    {
      "inputs": [
        {
          "internalType": "address",
          "name": "",
          "type": "address"
        }
      ],
      "name": "userRewardPerTokenPaid",
      "outputs": [
        {
          "internalType": "uint256",
          "name": "",
          "type": "uint256"
        }
      ],
      "stateMutability": "view",
      "type": "function",
      "constant": true
    },
    {
      "inputs": [],
      "name": "rewardPerToken",
      "outputs": [
        {
          "internalType": "uint256",
          "name": "",
          "type": "uint256"
        }
      ],
      "stateMutability": "view",
      "type": "function",
      "constant": true
    },
    {
      "inputs": [
        {
          "internalType": "address",
          "name": "account",
          "type": "address"
        }
      ],
      "name": "earned",
      "outputs": [
        {
          "internalType": "uint256",
          "name": "",
          "type": "uint256"
        }
      ],
      "stateMutability": "view",
      "type": "function",
      "constant": true
    },
    {
      "inputs": [
        {
          "internalType": "uint256",
          "name": "_value",
          "type": "uint256"
        }
      ],
      "name": "stake",
      "outputs": [],
      "stateMutability": "nonpayable",
      "type": "function"
    },
    {
      "inputs": [
        {
          "internalType": "uint256",
          "name": "amount",
          "type": "uint256"
        }
      ],
      "name": "unstake",
      "outputs": [],
      "stateMutability": "nonpayable",
      "type": "function"
    },
    {
      "inputs": [],
      "name": "getReward",
      "outputs": [],
      "stateMutability": "nonpayable",
      "type": "function"
    }
  ],
  "bytecode": "0x60806040526040518060400160405280600e81526020017f48616f205374616b6520506f6f6c000000000000000000000000000000000000815250600090805190602001906200005192919062000124565b503480156200005f57600080fd5b506040516200148a3803806200148a833981810160405281019062000085919062000252565b80600260006101000a81548173ffffffffffffffffffffffffffffffffffffffff021916908373ffffffffffffffffffffffffffffffffffffffff16021790555033600160006101000a81548173ffffffffffffffffffffffffffffffffffffffff021916908373ffffffffffffffffffffffffffffffffffffffff160217905550670de0b6b3a76400006004819055504260058190555050620002e9565b8280546200013290620002b3565b90600052602060002090601f016020900481019282620001565760008555620001a2565b82601f106200017157805160ff1916838001178555620001a2565b82800160010185558215620001a2579182015b82811115620001a157825182559160200191906001019062000184565b5b509050620001b19190620001b5565b5090565b5b80821115620001d0576000816000905550600101620001b6565b5090565b600080fd5b600073ffffffffffffffffffffffffffffffffffffffff82169050919050565b60006200020682620001d9565b9050919050565b60006200021a82620001f9565b9050919050565b6200022c816200020d565b81146200023857600080fd5b50565b6000815190506200024c8162000221565b92915050565b6000602082840312156200026b576200026a620001d4565b5b60006200027b848285016200023b565b91505092915050565b7f4e487b7100000000000000000000000000000000000000000000000000000000600052602260045260246000fd5b60006002820490506001821680620002cc57607f821691505b60208210811415620002e357620002e262000284565b5b50919050565b61119180620002f96000396000f3fe608060405234801561001057600080fd5b50600436106100f45760003560e01c8063817b1cd211610097578063c8f33c9111610066578063c8f33c9114610273578063cd3daf9d14610291578063df136d65146102af578063fe2f0e70146102cd576100f4565b8063817b1cd2146101eb5780638b876347146102095780638da5cb5b14610239578063a694fc3a14610257576100f4565b80632e17de78116100d35780632e17de78146101775780633d18b912146101935780634e7c57a61461019d5780637b0a47ee146101cd576100f4565b80628cc262146100f957806306fdde03146101295780630700037d14610147575b600080fd5b610113600480360381019061010e9190610c17565b6102eb565b6040516101209190610c5d565b60405180910390f35b61013161043f565b60405161013e9190610d11565b60405180910390f35b610161600480360381019061015c9190610c17565b6104cd565b60405161016e9190610c5d565b60405180910390f35b610191600480360381019061018c9190610d5f565b6104e5565b005b61019b610729565b005b6101b760048036038101906101b29190610c17565b6108ff565b6040516101c49190610c5d565b60405180910390f35b6101d5610917565b6040516101e29190610c5d565b60405180910390f35b6101f361091d565b6040516102009190610c5d565b60405180910390f35b610223600480360381019061021e9190610c17565b610923565b6040516102309190610c5d565b60405180910390f35b61024161093b565b60405161024e9190610d9b565b60405180910390f35b610271600480360381019061026c9190610d5f565b610961565b005b61027b610b1f565b6040516102889190610c5d565b60405180910390f35b610299610b25565b6040516102a69190610c5d565b60405180910390f35b6102b7610b88565b6040516102c49190610c5d565b60405180910390f35b6102d5610b8e565b6040516102e29190610e15565b60405180910390f35b600080600354141561033e57600960008373ffffffffffffffffffffffffffffffffffffffff1673ffffffffffffffffffffffffffffffffffffffff16815260200190815260200160002054905061043a565b600960008373ffffffffffffffffffffffffffffffffffffffff1673ffffffffffffffffffffffffffffffffffffffff16815260200190815260200160002054670de0b6b3a7640000600860008573ffffffffffffffffffffffffffffffffffffffff1673ffffffffffffffffffffffffffffffffffffffff168152602001908152602001600020546103cf610b25565b6103d99190610e5f565b600760008673ffffffffffffffffffffffffffffffffffffffff1673ffffffffffffffffffffffffffffffffffffffff168152602001908152602001600020546104239190610e93565b61042d9190610f1c565b6104379190610f4d565b90505b919050565b6000805461044c90610fd2565b80601f016020809104026020016040519081016040528092919081815260200182805461047890610fd2565b80156104c55780601f1061049a576101008083540402835291602001916104c5565b820191906000526020600020905b8154815290600101906020018083116104a857829003601f168201915b505050505081565b60096020528060005260406000206000915090505481565b336104ee610b25565b60068190555042600581905550610504816102eb565b600960008373ffffffffffffffffffffffffffffffffffffffff1673ffffffffffffffffffffffffffffffffffffffff16815260200190815260200160002081905550600654600860008373ffffffffffffffffffffffffffffffffffffffff1673ffffffffffffffffffffffffffffffffffffffff168152602001908152602001600020819055506000600760003373ffffffffffffffffffffffffffffffffffffffff1673ffffffffffffffffffffffffffffffffffffffff16815260200190815260200160002054905060008111610614576040517f08c379a000000000000000000000000000000000000000000000000000000000815260040161060b90611076565b60405180910390fd5b82600360008282546106269190610e5f565b9250508190555082600760003373ffffffffffffffffffffffffffffffffffffffff1673ffffffffffffffffffffffffffffffffffffffff168152602001908152602001600020600082825461067c9190610e5f565b92505081905550600260009054906101000a900473ffffffffffffffffffffffffffffffffffffffff1673ffffffffffffffffffffffffffffffffffffffff1663a9059cbb33856040518363ffffffff1660e01b81526004016106e0929190611096565b6020604051808303816000875af11580156106ff573d6000803e3d6000fd5b505050506040513d601f19601f8201168201806040525081019061072391906110f7565b50505050565b33610732610b25565b60068190555042600581905550610748816102eb565b600960008373ffffffffffffffffffffffffffffffffffffffff1673ffffffffffffffffffffffffffffffffffffffff16815260200190815260200160002081905550600654600860008373ffffffffffffffffffffffffffffffffffffffff1673ffffffffffffffffffffffffffffffffffffffff168152602001908152602001600020819055506000600960003373ffffffffffffffffffffffffffffffffffffffff1673ffffffffffffffffffffffffffffffffffffffff1681526020019081526020016000205490506000600960003373ffffffffffffffffffffffffffffffffffffffff1673ffffffffffffffffffffffffffffffffffffffff16815260200190815260200160002081905550600260009054906101000a900473ffffffffffffffffffffffffffffffffffffffff1673ffffffffffffffffffffffffffffffffffffffff1663a9059cbb33836040518363ffffffff1660e01b81526004016108b7929190611096565b6020604051808303816000875af11580156108d6573d6000803e3d6000fd5b505050506040513d601f19601f820116820180604052508101906108fa91906110f7565b505050565b60076020528060005260406000206000915090505481565b60045481565b60035481565b60086020528060005260406000206000915090505481565b600160009054906101000a900473ffffffffffffffffffffffffffffffffffffffff1681565b3361096a610b25565b60068190555042600581905550610980816102eb565b600960008373ffffffffffffffffffffffffffffffffffffffff1673ffffffffffffffffffffffffffffffffffffffff16815260200190815260200160002081905550600654600860008373ffffffffffffffffffffffffffffffffffffffff1673ffffffffffffffffffffffffffffffffffffffff16815260200190815260200160002081905550600260009054906101000a900473ffffffffffffffffffffffffffffffffffffffff1673ffffffffffffffffffffffffffffffffffffffff166323b872dd3330856040518463ffffffff1660e01b8152600401610a6893929190611124565b6020604051808303816000875af1158015610a87573d6000803e3d6000fd5b505050506040513d601f19601f82011682018060405250810190610aab91906110f7565b508160036000828254610abe9190610f4d565b9250508190555081600760003373ffffffffffffffffffffffffffffffffffffffff1673ffffffffffffffffffffffffffffffffffffffff1681526020019081526020016000206000828254610b149190610f4d565b925050819055505050565b60055481565b6000806003541415610b3a5760009050610b85565b670de0b6b3a7640000600354610b509190610f1c565b60045460055442610b619190610e5f565b610b6b9190610e93565b610b759190610f1c565b600654610b829190610f4d565b90505b90565b60065481565b600260009054906101000a900473ffffffffffffffffffffffffffffffffffffffff1681565b600080fd5b600073ffffffffffffffffffffffffffffffffffffffff82169050919050565b6000610be482610bb9565b9050919050565b610bf481610bd9565b8114610bff57600080fd5b50565b600081359050610c1181610beb565b92915050565b600060208284031215610c2d57610c2c610bb4565b5b6000610c3b84828501610c02565b91505092915050565b6000819050919050565b610c5781610c44565b82525050565b6000602082019050610c726000830184610c4e565b92915050565b600081519050919050565b600082825260208201905092915050565b60005b83811015610cb2578082015181840152602081019050610c97565b83811115610cc1576000848401525b50505050565b6000601f19601f8301169050919050565b6000610ce382610c78565b610ced8185610c83565b9350610cfd818560208601610c94565b610d0681610cc7565b840191505092915050565b60006020820190508181036000830152610d2b8184610cd8565b905092915050565b610d3c81610c44565b8114610d4757600080fd5b50565b600081359050610d5981610d33565b92915050565b600060208284031215610d7557610d74610bb4565b5b6000610d8384828501610d4a565b91505092915050565b610d9581610bd9565b82525050565b6000602082019050610db06000830184610d8c565b92915050565b6000819050919050565b6000610ddb610dd6610dd184610bb9565b610db6565b610bb9565b9050919050565b6000610ded82610dc0565b9050919050565b6000610dff82610de2565b9050919050565b610e0f81610df4565b82525050565b6000602082019050610e2a6000830184610e06565b92915050565b7f4e487b7100000000000000000000000000000000000000000000000000000000600052601160045260246000fd5b6000610e6a82610c44565b9150610e7583610c44565b925082821015610e8857610e87610e30565b5b828203905092915050565b6000610e9e82610c44565b9150610ea983610c44565b9250817fffffffffffffffffffffffffffffffffffffffffffffffffffffffffffffffff0483118215151615610ee257610ee1610e30565b5b828202905092915050565b7f4e487b7100000000000000000000000000000000000000000000000000000000600052601260045260246000fd5b6000610f2782610c44565b9150610f3283610c44565b925082610f4257610f41610eed565b5b828204905092915050565b6000610f5882610c44565b9150610f6383610c44565b9250827fffffffffffffffffffffffffffffffffffffffffffffffffffffffffffffffff03821115610f9857610f97610e30565b5b828201905092915050565b7f4e487b7100000000000000000000000000000000000000000000000000000000600052602260045260246000fd5b60006002820490506001821680610fea57607f821691505b60208210811415610ffe57610ffd610fa3565b5b50919050565b7f5374616b696e672062616c616e63652063616e6e6f74206265206c657373207460008201527f68616e207a65726f000000000000000000000000000000000000000000000000602082015250565b6000611060602883610c83565b915061106b82611004565b604082019050919050565b6000602082019050818103600083015261108f81611053565b9050919050565b60006040820190506110ab6000830185610d8c565b6110b86020830184610c4e565b9392505050565b60008115159050919050565b6110d4816110bf565b81146110df57600080fd5b50565b6000815190506110f1816110cb565b92915050565b60006020828403121561110d5761110c610bb4565b5b600061111b848285016110e2565b91505092915050565b60006060820190506111396000830186610d8c565b6111466020830185610d8c565b6111536040830184610c4e565b94935050505056fea2646970667358221220d69e70221d82c630e7cfc32c7ace2bf2c51d04641508cc87cd783c5fe0a4359564736f6c634300080c0033",
  "immutableReferences": {},
  "source": "// SPDX-License-Identifier: MIT\r\npragma solidity ^0.8.11;\r\n\r\nimport \"./Hao.sol\";\r\n\r\ncontract Pool {\r\n    string public name = \"Hao Stake Pool\";\r\n\r\n    address public owner;\r\n\r\n    Hao public hao;\r\n\r\n    uint public totalStaked;\r\n\r\n    uint public rewardRate;\r\n\r\n    uint public lastUpdateTime;\r\n\r\n    uint public rewardPerTokenStored;\r\n\r\n    mapping(address => uint) public stakeBalance;\r\n\r\n    mapping(address => uint) public userRewardPerTokenPaid;\r\n\r\n    mapping(address => uint) public rewards;\r\n\r\n    constructor(Hao _hao) {\r\n        hao = _hao;\r\n\r\n        owner = msg.sender;\r\n\r\n        rewardRate = 1e18;\r\n\r\n        lastUpdateTime = block.timestamp;\r\n    }\r\n\r\n    function rewardPerToken() public view returns (uint) {\r\n        if (totalStaked == 0) {\r\n            return 0;\r\n        }\r\n        return\r\n            rewardPerTokenStored +\r\n            (((block.timestamp - lastUpdateTime) * rewardRate) /\r\n                (totalStaked / 1e18)); \r\n    }\r\n\r\n    function earned(address account) public view returns (uint) {\r\n        if (totalStaked == 0) {\r\n            return rewards[account];\r\n        }\r\n        return\r\n            ((stakeBalance[account] * (rewardPerToken() - userRewardPerTokenPaid[account])) / 1e18) + rewards[account];\r\n    }\r\n\r\n    modifier updateReward(address account) {\r\n        rewardPerTokenStored = rewardPerToken();\r\n        lastUpdateTime = block.timestamp;\r\n\r\n        rewards[account] = earned(account);\r\n        userRewardPerTokenPaid[account] = rewardPerTokenStored;\r\n        _;\r\n    }\r\n\r\n    function stake(uint _value) public updateReward(msg.sender) {\r\n        hao.transferFrom(msg.sender, address(this), _value);\r\n\r\n        totalStaked += _value;\r\n\r\n        stakeBalance[msg.sender] += _value;\r\n    }\r\n\r\n    function unstake(uint amount) public updateReward(msg.sender) {\r\n        uint balance = stakeBalance[msg.sender];\r\n\r\n        require(balance > 0, \"Staking balance cannot be less than zero\");\r\n\r\n        totalStaked -= amount;\r\n\r\n        stakeBalance[msg.sender] -= amount;\r\n\r\n        hao.transfer(msg.sender, amount);\r\n    }\r\n\r\n    function getReward() public updateReward(msg.sender) {\r\n        uint reward = rewards[msg.sender];\r\n        rewards[msg.sender] = 0;\r\n        hao.transfer(msg.sender, reward);\r\n    }\r\n}\r\n",
  "sourcePath": "C:\\Users\\unnha\\Documents\\self\\blog-project\\stake-pool-dev\\contracts\\Pool.sol",
  "compiler": {
    "name": "solc",
    "version": "0.8.12+commit.f00d7308.Emscripten.clang"
  },
  "schemaVersion": "3.4.4",
  "updatedAt": "2022-03-06T16:52:52.883Z",
  "networkType": "ethereum",
  "devdoc": {
    "kind": "dev",
    "methods": {},
    "version": 1
  },
  "userdoc": {
    "kind": "user",
    "methods": {},
    "version": 1
  }
}