{
  "contractName": "Pool",
  "abi": [
    {
      "inputs": [
        {
          "internalType": "contract Hao",
          "name": "_hao",
          "type": "address"
        }
      ],
      "stateMutability": "nonpayable",
      "type": "constructor"
    },
    {
      "inputs": [],
      "name": "dailyReward",
      "outputs": [
        {
          "internalType": "uint256",
          "name": "",
          "type": "uint256"
        }
      ],
      "stateMutability": "view",
      "type": "function",
      "constant": true
    },
    {
      "inputs": [],
      "name": "hao",
      "outputs": [
        {
          "internalType": "contract Hao",
          "name": "",
          "type": "address"
        }
      ],
      "stateMutability": "view",
      "type": "function",
      "constant": true
    },
    {
      "inputs": [],
      "name": "name",
      "outputs": [
        {
          "internalType": "string",
          "name": "",
          "type": "string"
        }
      ],
      "stateMutability": "view",
      "type": "function",
      "constant": true
    },
    {
      "inputs": [],
      "name": "owner",
      "outputs": [
        {
          "internalType": "address",
          "name": "",
          "type": "address"
        }
      ],
      "stateMutability": "view",
      "type": "function",
      "constant": true
    },
    {
      "inputs": [
        {
          "internalType": "address",
          "name": "",
          "type": "address"
        }
      ],
      "name": "stakeBalance",
      "outputs": [
        {
          "internalType": "uint256",
          "name": "",
          "type": "uint256"
        }
      ],
      "stateMutability": "view",
      "type": "function",
      "constant": true
    },
    {
      "inputs": [],
      "name": "totalStaked",
      "outputs": [
        {
          "internalType": "uint256",
          "name": "",
          "type": "uint256"
        }
      ],
      "stateMutability": "view",
      "type": "function",
      "constant": true
    },
    {
      "inputs": [
        {
          "internalType": "uint256",
          "name": "reward",
          "type": "uint256"
        }
      ],
      "name": "setDailyReward",
      "outputs": [],
      "stateMutability": "nonpayable",
      "type": "function"
    },
    {
      "inputs": [
        {
          "internalType": "uint256",
          "name": "_value",
          "type": "uint256"
        }
      ],
      "name": "stake",
      "outputs": [],
      "stateMutability": "nonpayable",
      "type": "function"
    },
    {
      "inputs": [],
      "name": "unstake",
      "outputs": [],
      "stateMutability": "nonpayable",
      "type": "function"
    }
  ],
  "bytecode": "0x60806040526040518060400160405280600e81526020017f48616f205374616b6520506f6f6c000000000000000000000000000000000000815250600090805190602001906200005192919062000116565b503480156200005f57600080fd5b5060405162000eff38038062000eff833981810160405281019062000085919062000244565b80600260006101000a81548173ffffffffffffffffffffffffffffffffffffffff021916908373ffffffffffffffffffffffffffffffffffffffff16021790555033600160006101000a81548173ffffffffffffffffffffffffffffffffffffffff021916908373ffffffffffffffffffffffffffffffffffffffff160217905550600060048190555050620002db565b8280546200012490620002a5565b90600052602060002090601f01602090048101928262000148576000855562000194565b82601f106200016357805160ff191683800117855562000194565b8280016001018555821562000194579182015b828111156200019357825182559160200191906001019062000176565b5b509050620001a39190620001a7565b5090565b5b80821115620001c2576000816000905550600101620001a8565b5090565b600080fd5b600073ffffffffffffffffffffffffffffffffffffffff82169050919050565b6000620001f882620001cb565b9050919050565b60006200020c82620001eb565b9050919050565b6200021e81620001ff565b81146200022a57600080fd5b50565b6000815190506200023e8162000213565b92915050565b6000602082840312156200025d576200025c620001c6565b5b60006200026d848285016200022d565b91505092915050565b7f4e487b7100000000000000000000000000000000000000000000000000000000600052602260045260246000fd5b60006002820490506001821680620002be57607f821691505b60208210811415620002d557620002d462000276565b5b50919050565b610c1480620002eb6000396000f3fe608060405234801561001057600080fd5b50600436106100935760003560e01c8063817b1cd211610066578063817b1cd21461010c5780638da5cb5b1461012a578063a694fc3a14610148578063c964ad4514610164578063fe2f0e701461018257610093565b806306fdde03146100985780630aa43533146100b65780632def6620146100d25780634e7c57a6146100dc575b600080fd5b6100a06101a0565b6040516100ad91906106b2565b60405180910390f35b6100d060048036038101906100cb919061070f565b61022e565b005b6100da61030b565b005b6100f660048036038101906100f1919061079a565b610494565b60405161010391906107d6565b60405180910390f35b6101146104ac565b60405161012191906107d6565b60405180910390f35b6101326104b2565b60405161013f9190610800565b60405180910390f35b610162600480360381019061015d919061070f565b6104d8565b005b61016c6105ed565b60405161017991906107d6565b60405180910390f35b61018a6105f3565b604051610197919061087a565b60405180910390f35b600080546101ad906108c4565b80601f01602080910402602001604051908101604052809291908181526020018280546101d9906108c4565b80156102265780601f106101fb57610100808354040283529160200191610226565b820191906000526020600020905b81548152906001019060200180831161020957829003601f168201915b505050505081565b600160009054906101000a900473ffffffffffffffffffffffffffffffffffffffff1673ffffffffffffffffffffffffffffffffffffffff163373ffffffffffffffffffffffffffffffffffffffff16146102be576040517f08c379a00000000000000000000000000000000000000000000000000000000081526004016102b590610942565b60405180910390fd5b60008111610301576040517f08c379a00000000000000000000000000000000000000000000000000000000081526004016102f8906109ae565b60405180910390fd5b8060048190555050565b6000600560003373ffffffffffffffffffffffffffffffffffffffff1673ffffffffffffffffffffffffffffffffffffffff16815260200190815260200160002054905060008111610392576040517f08c379a000000000000000000000000000000000000000000000000000000000815260040161038990610a40565b60405180910390fd5b600260009054906101000a900473ffffffffffffffffffffffffffffffffffffffff1673ffffffffffffffffffffffffffffffffffffffff1663a9059cbb33836040518363ffffffff1660e01b81526004016103ef929190610a60565b6020604051808303816000875af115801561040e573d6000803e3d6000fd5b505050506040513d601f19601f820116820180604052508101906104329190610ac1565b506000600560003373ffffffffffffffffffffffffffffffffffffffff1673ffffffffffffffffffffffffffffffffffffffff16815260200190815260200160002081905550806003600082825461048a9190610b1d565b9250508190555050565b60056020528060005260406000206000915090505481565b60035481565b600160009054906101000a900473ffffffffffffffffffffffffffffffffffffffff1681565b600260009054906101000a900473ffffffffffffffffffffffffffffffffffffffff1673ffffffffffffffffffffffffffffffffffffffff166323b872dd3330846040518463ffffffff1660e01b815260040161053793929190610b51565b6020604051808303816000875af1158015610556573d6000803e3d6000fd5b505050506040513d601f19601f8201168201806040525081019061057a9190610ac1565b5080600560003373ffffffffffffffffffffffffffffffffffffffff1673ffffffffffffffffffffffffffffffffffffffff16815260200190815260200160002060008282546105ca9190610b88565b9250508190555080600360008282546105e39190610b88565b9250508190555050565b60045481565b600260009054906101000a900473ffffffffffffffffffffffffffffffffffffffff1681565b600081519050919050565b600082825260208201905092915050565b60005b83811015610653578082015181840152602081019050610638565b83811115610662576000848401525b50505050565b6000601f19601f8301169050919050565b600061068482610619565b61068e8185610624565b935061069e818560208601610635565b6106a781610668565b840191505092915050565b600060208201905081810360008301526106cc8184610679565b905092915050565b600080fd5b6000819050919050565b6106ec816106d9565b81146106f757600080fd5b50565b600081359050610709816106e3565b92915050565b600060208284031215610725576107246106d4565b5b6000610733848285016106fa565b91505092915050565b600073ffffffffffffffffffffffffffffffffffffffff82169050919050565b60006107678261073c565b9050919050565b6107778161075c565b811461078257600080fd5b50565b6000813590506107948161076e565b92915050565b6000602082840312156107b0576107af6106d4565b5b60006107be84828501610785565b91505092915050565b6107d0816106d9565b82525050565b60006020820190506107eb60008301846107c7565b92915050565b6107fa8161075c565b82525050565b600060208201905061081560008301846107f1565b92915050565b6000819050919050565b600061084061083b6108368461073c565b61081b565b61073c565b9050919050565b600061085282610825565b9050919050565b600061086482610847565b9050919050565b61087481610859565b82525050565b600060208201905061088f600083018461086b565b92915050565b7f4e487b7100000000000000000000000000000000000000000000000000000000600052602260045260246000fd5b600060028204905060018216806108dc57607f821691505b602082108114156108f0576108ef610895565b5b50919050565b7f63616c6c6572206d75737420626520746865206f776e65720000000000000000600082015250565b600061092c601883610624565b9150610937826108f6565b602082019050919050565b6000602082019050818103600083015261095b8161091f565b9050919050565b7f5265776172642063616e6e6f74206265206c657373207468616e207a65726f00600082015250565b6000610998601f83610624565b91506109a382610962565b602082019050919050565b600060208201905081810360008301526109c78161098b565b9050919050565b7f5374616b696e672062616c616e63652063616e6e6f74206265206c657373207460008201527f68616e207a65726f000000000000000000000000000000000000000000000000602082015250565b6000610a2a602883610624565b9150610a35826109ce565b604082019050919050565b60006020820190508181036000830152610a5981610a1d565b9050919050565b6000604082019050610a7560008301856107f1565b610a8260208301846107c7565b9392505050565b60008115159050919050565b610a9e81610a89565b8114610aa957600080fd5b50565b600081519050610abb81610a95565b92915050565b600060208284031215610ad757610ad66106d4565b5b6000610ae584828501610aac565b91505092915050565b7f4e487b7100000000000000000000000000000000000000000000000000000000600052601160045260246000fd5b6000610b28826106d9565b9150610b33836106d9565b925082821015610b4657610b45610aee565b5b828203905092915050565b6000606082019050610b6660008301866107f1565b610b7360208301856107f1565b610b8060408301846107c7565b949350505050565b6000610b93826106d9565b9150610b9e836106d9565b9250827fffffffffffffffffffffffffffffffffffffffffffffffffffffffffffffffff03821115610bd357610bd2610aee565b5b82820190509291505056fea264697066735822122038b0385c78d746f4ed2661b5cba940c5b0951af719e6ebb429667ebbe91c522b64736f6c634300080c0033",
  "immutableReferences": {},
  "source": "// SPDX-License-Identifier: MIT\r\npragma solidity ^0.8.11;\r\n\r\nimport \"./Hao.sol\";\r\n\r\ncontract Pool {\r\n    string public name = \"Hao Stake Pool\";\r\n\r\n    address public owner;\r\n\r\n    Hao public hao;\r\n\r\n    uint256 public totalStaked;\r\n\r\n    uint256 public dailyReward;\r\n\r\n    /** all stake users stake balance */\r\n    mapping(address => uint256) public stakeBalance;\r\n\r\n    constructor(Hao _hao) {\r\n        hao = _hao;\r\n\r\n        owner = msg.sender;\r\n\r\n        dailyReward = 0;\r\n    }\r\n\r\n    /**\r\n     * Set Daily Reward\r\n     */\r\n    function setDailyReward(uint256 reward) public {\r\n        require(msg.sender == owner, \"caller must be the owner\");\r\n\r\n        require(reward > 0, 'Reward cannot be less than zero');\r\n\r\n        dailyReward = reward;\r\n    }\r\n\r\n    /**\r\n     * Stake Token\r\n     */\r\n    function stake(uint256 _value) public {\r\n        hao.transferFrom(msg.sender, address(this), _value);\r\n\r\n        stakeBalance[msg.sender] += _value;\r\n\r\n        totalStaked += _value;\r\n    }\r\n\r\n    /**\r\n     * Unstake Token\r\n     */\r\n    function unstake() public {\r\n        uint256 balance = stakeBalance[msg.sender];\r\n\r\n        require(balance > 0, 'Staking balance cannot be less than zero');\r\n\r\n        hao.transfer(msg.sender, balance);\r\n\r\n        stakeBalance[msg.sender] = 0;\r\n\r\n        totalStaked -= balance;\r\n    }\r\n}",
  "sourcePath": "C:\\Users\\unnha\\Documents\\self\\blog-project\\stake-pool-dev\\contracts\\Pool.sol",
  "compiler": {
    "name": "solc",
    "version": "0.8.12+commit.f00d7308.Emscripten.clang"
  },
  "schemaVersion": "3.4.4",
  "updatedAt": "2022-02-26T11:35:50.119Z",
  "networkType": "ethereum",
  "devdoc": {
    "kind": "dev",
    "methods": {},
    "version": 1
  },
  "userdoc": {
    "kind": "user",
    "methods": {
      "setDailyReward(uint256)": {
        "notice": "Set Daily Reward"
      },
      "stake(uint256)": {
        "notice": "Stake Token"
      },
      "stakeBalance(address)": {
        "notice": "all stake users stake balance "
      },
      "unstake()": {
        "notice": "Unstake Token"
      }
    },
    "version": 1
  }
}