{
  "contractName": "Pool",
  "abi": [
    {
      "inputs": [
        {
          "internalType": "contract Hao",
          "name": "_hao",
          "type": "address"
        }
      ],
      "stateMutability": "nonpayable",
      "type": "constructor"
    },
    {
      "inputs": [],
      "name": "hao",
      "outputs": [
        {
          "internalType": "contract Hao",
          "name": "",
          "type": "address"
        }
      ],
      "stateMutability": "view",
      "type": "function"
    },
    {
      "inputs": [],
      "name": "lastUpdateTime",
      "outputs": [
        {
          "internalType": "uint256",
          "name": "",
          "type": "uint256"
        }
      ],
      "stateMutability": "view",
      "type": "function"
    },
    {
      "inputs": [],
      "name": "name",
      "outputs": [
        {
          "internalType": "string",
          "name": "",
          "type": "string"
        }
      ],
      "stateMutability": "view",
      "type": "function"
    },
    {
      "inputs": [],
      "name": "owner",
      "outputs": [
        {
          "internalType": "address",
          "name": "",
          "type": "address"
        }
      ],
      "stateMutability": "view",
      "type": "function"
    },
    {
      "inputs": [],
      "name": "rewardPerTokenStored",
      "outputs": [
        {
          "internalType": "uint256",
          "name": "",
          "type": "uint256"
        }
      ],
      "stateMutability": "view",
      "type": "function"
    },
    {
      "inputs": [],
      "name": "rewardRate",
      "outputs": [
        {
          "internalType": "uint256",
          "name": "",
          "type": "uint256"
        }
      ],
      "stateMutability": "view",
      "type": "function"
    },
    {
      "inputs": [
        {
          "internalType": "address",
          "name": "",
          "type": "address"
        }
      ],
      "name": "rewards",
      "outputs": [
        {
          "internalType": "uint256",
          "name": "",
          "type": "uint256"
        }
      ],
      "stateMutability": "view",
      "type": "function"
    },
    {
      "inputs": [
        {
          "internalType": "address",
          "name": "",
          "type": "address"
        }
      ],
      "name": "stakeBalance",
      "outputs": [
        {
          "internalType": "uint256",
          "name": "",
          "type": "uint256"
        }
      ],
      "stateMutability": "view",
      "type": "function"
    },
    {
      "inputs": [],
      "name": "totalStaked",
      "outputs": [
        {
          "internalType": "uint256",
          "name": "",
          "type": "uint256"
        }
      ],
      "stateMutability": "view",
      "type": "function"
    },
    {
      "inputs": [
        {
          "internalType": "address",
          "name": "",
          "type": "address"
        }
      ],
      "name": "userRewardPerTokenPaid",
      "outputs": [
        {
          "internalType": "uint256",
          "name": "",
          "type": "uint256"
        }
      ],
      "stateMutability": "view",
      "type": "function"
    },
    {
      "inputs": [],
      "name": "rewardPerToken",
      "outputs": [
        {
          "internalType": "uint256",
          "name": "",
          "type": "uint256"
        }
      ],
      "stateMutability": "view",
      "type": "function"
    },
    {
      "inputs": [
        {
          "internalType": "address",
          "name": "account",
          "type": "address"
        }
      ],
      "name": "earned",
      "outputs": [
        {
          "internalType": "uint256",
          "name": "",
          "type": "uint256"
        }
      ],
      "stateMutability": "view",
      "type": "function"
    },
    {
      "inputs": [
        {
          "internalType": "uint256",
          "name": "_value",
          "type": "uint256"
        }
      ],
      "name": "stake",
      "outputs": [],
      "stateMutability": "nonpayable",
      "type": "function"
    },
    {
      "inputs": [
        {
          "internalType": "uint256",
          "name": "amount",
          "type": "uint256"
        }
      ],
      "name": "unstake",
      "outputs": [],
      "stateMutability": "nonpayable",
      "type": "function"
    },
    {
      "inputs": [],
      "name": "getReward",
      "outputs": [],
      "stateMutability": "nonpayable",
      "type": "function"
    }
  ],
  "bytecode": "0x60806040526040518060400160405280600e81526020017f48616f205374616b6520506f6f6c000000000000000000000000000000000000815250600090805190602001906200005192919062000123565b503480156200005f57600080fd5b506040516200148538038062001485833981810160405281019062000085919062000251565b80600260006101000a81548173ffffffffffffffffffffffffffffffffffffffff021916908373ffffffffffffffffffffffffffffffffffffffff16021790555033600160006101000a81548173ffffffffffffffffffffffffffffffffffffffff021916908373ffffffffffffffffffffffffffffffffffffffff160217905550662386f26fc100006004819055504260058190555050620002e7565b8280546200013190620002b2565b90600052602060002090601f016020900481019282620001555760008555620001a1565b82601f106200017057805160ff1916838001178555620001a1565b82800160010185558215620001a1579182015b82811115620001a057825182559160200191906001019062000183565b5b509050620001b09190620001b4565b5090565b5b80821115620001cf576000816000905550600101620001b5565b5090565b600080fd5b600073ffffffffffffffffffffffffffffffffffffffff82169050919050565b60006200020582620001d8565b9050919050565b60006200021982620001f8565b9050919050565b6200022b816200020c565b81146200023757600080fd5b50565b6000815190506200024b8162000220565b92915050565b6000602082840312156200026a5762000269620001d3565b5b60006200027a848285016200023a565b91505092915050565b7f4e487b7100000000000000000000000000000000000000000000000000000000600052602260045260246000fd5b60006002820490506001821680620002cb57607f821691505b602082108103620002e157620002e062000283565b5b50919050565b61118e80620002f76000396000f3fe608060405234801561001057600080fd5b50600436106100f45760003560e01c8063817b1cd211610097578063c8f33c9111610066578063c8f33c9114610273578063cd3daf9d14610291578063df136d65146102af578063fe2f0e70146102cd576100f4565b8063817b1cd2146101eb5780638b876347146102095780638da5cb5b14610239578063a694fc3a14610257576100f4565b80632e17de78116100d35780632e17de78146101775780633d18b912146101935780634e7c57a61461019d5780637b0a47ee146101cd576100f4565b80628cc262146100f957806306fdde03146101295780630700037d14610147575b600080fd5b610113600480360381019061010e9190610c15565b6102eb565b6040516101209190610c5b565b60405180910390f35b61013161043e565b60405161013e9190610d0f565b60405180910390f35b610161600480360381019061015c9190610c15565b6104cc565b60405161016e9190610c5b565b60405180910390f35b610191600480360381019061018c9190610d5d565b6104e4565b005b61019b610728565b005b6101b760048036038101906101b29190610c15565b6108fe565b6040516101c49190610c5b565b60405180910390f35b6101d5610916565b6040516101e29190610c5b565b60405180910390f35b6101f361091c565b6040516102009190610c5b565b60405180910390f35b610223600480360381019061021e9190610c15565b610922565b6040516102309190610c5b565b60405180910390f35b61024161093a565b60405161024e9190610d99565b60405180910390f35b610271600480360381019061026c9190610d5d565b610960565b005b61027b610b1e565b6040516102889190610c5b565b60405180910390f35b610299610b24565b6040516102a69190610c5b565b60405180910390f35b6102b7610b86565b6040516102c49190610c5b565b60405180910390f35b6102d5610b8c565b6040516102e29190610e13565b60405180910390f35b6000806003540361033d57600960008373ffffffffffffffffffffffffffffffffffffffff1673ffffffffffffffffffffffffffffffffffffffff168152602001908152602001600020549050610439565b600960008373ffffffffffffffffffffffffffffffffffffffff1673ffffffffffffffffffffffffffffffffffffffff16815260200190815260200160002054670de0b6b3a7640000600860008573ffffffffffffffffffffffffffffffffffffffff1673ffffffffffffffffffffffffffffffffffffffff168152602001908152602001600020546103ce610b24565b6103d89190610e5d565b600760008673ffffffffffffffffffffffffffffffffffffffff1673ffffffffffffffffffffffffffffffffffffffff168152602001908152602001600020546104229190610e91565b61042c9190610f1a565b6104369190610f4b565b90505b919050565b6000805461044b90610fd0565b80601f016020809104026020016040519081016040528092919081815260200182805461047790610fd0565b80156104c45780601f10610499576101008083540402835291602001916104c4565b820191906000526020600020905b8154815290600101906020018083116104a757829003601f168201915b505050505081565b60096020528060005260406000206000915090505481565b336104ed610b24565b60068190555042600581905550610503816102eb565b600960008373ffffffffffffffffffffffffffffffffffffffff1673ffffffffffffffffffffffffffffffffffffffff16815260200190815260200160002081905550600654600860008373ffffffffffffffffffffffffffffffffffffffff1673ffffffffffffffffffffffffffffffffffffffff168152602001908152602001600020819055506000600760003373ffffffffffffffffffffffffffffffffffffffff1673ffffffffffffffffffffffffffffffffffffffff16815260200190815260200160002054905060008111610613576040517f08c379a000000000000000000000000000000000000000000000000000000000815260040161060a90611073565b60405180910390fd5b82600360008282546106259190610e5d565b9250508190555082600760003373ffffffffffffffffffffffffffffffffffffffff1673ffffffffffffffffffffffffffffffffffffffff168152602001908152602001600020600082825461067b9190610e5d565b92505081905550600260009054906101000a900473ffffffffffffffffffffffffffffffffffffffff1673ffffffffffffffffffffffffffffffffffffffff1663a9059cbb33856040518363ffffffff1660e01b81526004016106df929190611093565b6020604051808303816000875af11580156106fe573d6000803e3d6000fd5b505050506040513d601f19601f8201168201806040525081019061072291906110f4565b50505050565b33610731610b24565b60068190555042600581905550610747816102eb565b600960008373ffffffffffffffffffffffffffffffffffffffff1673ffffffffffffffffffffffffffffffffffffffff16815260200190815260200160002081905550600654600860008373ffffffffffffffffffffffffffffffffffffffff1673ffffffffffffffffffffffffffffffffffffffff168152602001908152602001600020819055506000600960003373ffffffffffffffffffffffffffffffffffffffff1673ffffffffffffffffffffffffffffffffffffffff1681526020019081526020016000205490506000600960003373ffffffffffffffffffffffffffffffffffffffff1673ffffffffffffffffffffffffffffffffffffffff16815260200190815260200160002081905550600260009054906101000a900473ffffffffffffffffffffffffffffffffffffffff1673ffffffffffffffffffffffffffffffffffffffff1663a9059cbb33836040518363ffffffff1660e01b81526004016108b6929190611093565b6020604051808303816000875af11580156108d5573d6000803e3d6000fd5b505050506040513d601f19601f820116820180604052508101906108f991906110f4565b505050565b60076020528060005260406000206000915090505481565b60045481565b60035481565b60086020528060005260406000206000915090505481565b600160009054906101000a900473ffffffffffffffffffffffffffffffffffffffff1681565b33610969610b24565b6006819055504260058190555061097f816102eb565b600960008373ffffffffffffffffffffffffffffffffffffffff1673ffffffffffffffffffffffffffffffffffffffff16815260200190815260200160002081905550600654600860008373ffffffffffffffffffffffffffffffffffffffff1673ffffffffffffffffffffffffffffffffffffffff16815260200190815260200160002081905550600260009054906101000a900473ffffffffffffffffffffffffffffffffffffffff1673ffffffffffffffffffffffffffffffffffffffff166323b872dd3330856040518463ffffffff1660e01b8152600401610a6793929190611121565b6020604051808303816000875af1158015610a86573d6000803e3d6000fd5b505050506040513d601f19601f82011682018060405250810190610aaa91906110f4565b508160036000828254610abd9190610f4b565b9250508190555081600760003373ffffffffffffffffffffffffffffffffffffffff1673ffffffffffffffffffffffffffffffffffffffff1681526020019081526020016000206000828254610b139190610f4b565b925050819055505050565b60055481565b60008060035403610b385760009050610b83565b670de0b6b3a7640000600354610b4e9190610f1a565b60045460055442610b5f9190610e5d565b610b699190610e91565b610b739190610f1a565b600654610b809190610f4b565b90505b90565b60065481565b600260009054906101000a900473ffffffffffffffffffffffffffffffffffffffff1681565b600080fd5b600073ffffffffffffffffffffffffffffffffffffffff82169050919050565b6000610be282610bb7565b9050919050565b610bf281610bd7565b8114610bfd57600080fd5b50565b600081359050610c0f81610be9565b92915050565b600060208284031215610c2b57610c2a610bb2565b5b6000610c3984828501610c00565b91505092915050565b6000819050919050565b610c5581610c42565b82525050565b6000602082019050610c706000830184610c4c565b92915050565b600081519050919050565b600082825260208201905092915050565b60005b83811015610cb0578082015181840152602081019050610c95565b83811115610cbf576000848401525b50505050565b6000601f19601f8301169050919050565b6000610ce182610c76565b610ceb8185610c81565b9350610cfb818560208601610c92565b610d0481610cc5565b840191505092915050565b60006020820190508181036000830152610d298184610cd6565b905092915050565b610d3a81610c42565b8114610d4557600080fd5b50565b600081359050610d5781610d31565b92915050565b600060208284031215610d7357610d72610bb2565b5b6000610d8184828501610d48565b91505092915050565b610d9381610bd7565b82525050565b6000602082019050610dae6000830184610d8a565b92915050565b6000819050919050565b6000610dd9610dd4610dcf84610bb7565b610db4565b610bb7565b9050919050565b6000610deb82610dbe565b9050919050565b6000610dfd82610de0565b9050919050565b610e0d81610df2565b82525050565b6000602082019050610e286000830184610e04565b92915050565b7f4e487b7100000000000000000000000000000000000000000000000000000000600052601160045260246000fd5b6000610e6882610c42565b9150610e7383610c42565b925082821015610e8657610e85610e2e565b5b828203905092915050565b6000610e9c82610c42565b9150610ea783610c42565b9250817fffffffffffffffffffffffffffffffffffffffffffffffffffffffffffffffff0483118215151615610ee057610edf610e2e565b5b828202905092915050565b7f4e487b7100000000000000000000000000000000000000000000000000000000600052601260045260246000fd5b6000610f2582610c42565b9150610f3083610c42565b925082610f4057610f3f610eeb565b5b828204905092915050565b6000610f5682610c42565b9150610f6183610c42565b9250827fffffffffffffffffffffffffffffffffffffffffffffffffffffffffffffffff03821115610f9657610f95610e2e565b5b828201905092915050565b7f4e487b7100000000000000000000000000000000000000000000000000000000600052602260045260246000fd5b60006002820490506001821680610fe857607f821691505b602082108103610ffb57610ffa610fa1565b5b50919050565b7f5374616b696e672062616c616e63652063616e6e6f74206265206c657373207460008201527f68616e207a65726f000000000000000000000000000000000000000000000000602082015250565b600061105d602883610c81565b915061106882611001565b604082019050919050565b6000602082019050818103600083015261108c81611050565b9050919050565b60006040820190506110a86000830185610d8a565b6110b56020830184610c4c565b9392505050565b60008115159050919050565b6110d1816110bc565b81146110dc57600080fd5b50565b6000815190506110ee816110c8565b92915050565b60006020828403121561110a57611109610bb2565b5b6000611118848285016110df565b91505092915050565b60006060820190506111366000830186610d8a565b6111436020830185610d8a565b6111506040830184610c4c565b94935050505056fea2646970667358221220d0fcb8d66b47d6548813454275e0c49d003f58fb2d5ea6adcd9e94b396dacfa464736f6c634300080d0033",
  "immutableReferences": {},
  "source": "// SPDX-License-Identifier: MIT\r\npragma solidity ^0.8.11;\r\n\r\nimport \"./Hao.sol\";\r\n\r\ncontract Pool {\r\n    string public name = \"Hao Stake Pool\";\r\n\r\n    address public owner;\r\n\r\n    Hao public hao;\r\n\r\n    uint public totalStaked;\r\n\r\n    uint public rewardRate;\r\n\r\n    uint public lastUpdateTime;\r\n\r\n    uint public rewardPerTokenStored;\r\n\r\n    mapping(address => uint) public stakeBalance;\r\n\r\n    mapping(address => uint) public userRewardPerTokenPaid;\r\n\r\n    mapping(address => uint) public rewards;\r\n\r\n    constructor(Hao _hao) {\r\n        hao = _hao;\r\n\r\n        owner = msg.sender;\r\n\r\n        rewardRate = 1e16;\r\n\r\n        lastUpdateTime = block.timestamp;\r\n    }\r\n\r\n    function rewardPerToken() public view returns (uint) {\r\n        if (totalStaked == 0) {\r\n            return 0;\r\n        }\r\n        return\r\n            rewardPerTokenStored +\r\n            (((block.timestamp - lastUpdateTime) * rewardRate) /\r\n                (totalStaked / 1e18)); \r\n    }\r\n\r\n    function earned(address account) public view returns (uint) {\r\n        if (totalStaked == 0) {\r\n            return rewards[account];\r\n        }\r\n        return\r\n            ((stakeBalance[account] * (rewardPerToken() - userRewardPerTokenPaid[account])) / 1e18) + rewards[account];\r\n    }\r\n\r\n    modifier updateReward(address account) {\r\n        rewardPerTokenStored = rewardPerToken();\r\n        lastUpdateTime = block.timestamp;\r\n\r\n        rewards[account] = earned(account);\r\n        userRewardPerTokenPaid[account] = rewardPerTokenStored;\r\n        _;\r\n    }\r\n\r\n    function stake(uint _value) public updateReward(msg.sender) {\r\n        hao.transferFrom(msg.sender, address(this), _value);\r\n\r\n        totalStaked += _value;\r\n\r\n        stakeBalance[msg.sender] += _value;\r\n    }\r\n\r\n    function unstake(uint amount) public updateReward(msg.sender) {\r\n        uint balance = stakeBalance[msg.sender];\r\n\r\n        require(balance > 0, \"Staking balance cannot be less than zero\");\r\n\r\n        totalStaked -= amount;\r\n\r\n        stakeBalance[msg.sender] -= amount;\r\n\r\n        hao.transfer(msg.sender, amount);\r\n    }\r\n\r\n    function getReward() public updateReward(msg.sender) {\r\n        uint reward = rewards[msg.sender];\r\n        rewards[msg.sender] = 0;\r\n        hao.transfer(msg.sender, reward);\r\n    }\r\n}\r\n",
  "sourcePath": "C:\\Users\\unnha\\Documents\\self\\blog-project\\stake-pool-dev\\contracts\\Pool.sol",
  "compiler": {
    "name": "solc",
    "version": "0.8.13+commit.abaa5c0e.Emscripten.clang"
  },
  "schemaVersion": "3.4.7",
  "updatedAt": "2022-04-13T16:49:55.451Z",
  "devdoc": {
    "kind": "dev",
    "methods": {},
    "version": 1
  },
  "userdoc": {
    "kind": "user",
    "methods": {},
    "version": 1
  }
}